:020000040800F2
:100000000809002071010008790100087B0100083F
:1000100000000000000000000000000000000000E0
:100020000000000000000000000000007D0100084A
:1000300000000000000000007F010008E922000825
:100040008301000883010008830100088301000880
:100050008301000883010008830100088301000870
:10006000000000002112000883010008830100083D
:1000700083010008A5230008830100080000000098
:1000800083010008830100080000000083010008CC
:100090008301000883010008830100088301000830
:1000A000830100088301000883010008FD23000884
:1000B00083010008000000000000000000000000B4
:1000C00083010008000000008301000800F002F82E
:1000D00000F03EF80CA030C8083824182D18671E10
:1000E000A246AB4654465D46AC4201D100F030F822
:1000F0007E460F3EB6460FCC0126334200D0FB1A97
:100100003343A246AB461847CC430000EC43000003
:10011000103A02D378C878C1FAD8520701D330C850
:1001200030C101D504680C60704700000023002432
:1001300000250026103A01D378C1FBD8520700D31E
:1001400030C100D50B6070471FB51FBD10B510BD85
:1001500000F0BAFF1146FFF7F7FF02F080FF00F052
:10016000D2FF03B4FFF7F2FF03BC01F029F800004F
:100170000748804707480047FEE7FEE7FEE7FEE73F
:10018000FEE7FEE704480549054A064B70470000B4
:10019000F9220008CD00000800070020080900200F
:1001A00004070020080700204343514330B55C1882
:1001B000010C130C0D4692B25D4380B251432C19D1
:1001C000054655430A0C09044D1962415843010C78
:1001D00000044019514130BDFEB5044610460D469D
:1001E000184373D0A6468C460020A41A01469D41B0
:1001F00067D36646002701243D46B61A9D4102D3C7
:1002000013463A462124654676462F04360C3E4373
:100210002D0CB61A9D4104D3150C1B042B4312045C
:100220001034654676462F06360A3E432D0AB61A26
:100230009D4104D3150E1B022B4312020834654660
:1002400076462F0736093E432D09B61A9D4104D341
:10025000150F1B012B431201241D65467646AF077F
:10026000B6083E43AD08B61A9D4104D3950F9B00D6
:100270002B439200A41C65467646EF0776083E4362
:100280006D08B61A9D411AD392185B41641C16E0A2
:100290000018764665464941B71A9D410191009084
:1002A00009D36046B11A98418E4684460098019958
:1002B0000025401C6941DD0752082A435B08641E83
:1002C000E6D57246634603B0F0BDFFE720462843FB
:1002D00007D00020C0430146C046C04622462B46F8
:1002E000F1E700200146F7E701E004C0091F0429F7
:1002F000FBD28B0701D50280801CC90700D0027099
:10030000704700290BD0C30702D00270401C491E61
:10031000022904D3830702D50280801C891EE3E7EB
:100320000022EEE70022DFE77047704770470000C9
:100330000246C80FC00781434B0030B54B405B00FD
:100340009B0D20D01923DB06C91801231B059942F8
:1003500020DB0324A40704251346AB400BD3002B5A
:1003600004D1EB0613409B00E34204D4012464074C
:10037000002312195941FF231B0599420BD2C900D2
:100380000143500F09E0CB0204D5014308030243A7
:1003900005D0054830BDFF21C905084330BD0846DA
:1003A00007210905884330BD0000C07FF0B50C4629
:1003B000871A9C410D46861A9D4103D2C01BA1415C
:1003C000D21963410D0D1F0DC94EEC1BAE435CD01D
:1003D0007F057F0D0026002F51D02D05AC46A94387
:1003E000DD020123ED0A1B051D4320231B1B24D422
:1003F0001746E740381871412F46E740CC199D4019
:100400002818314661410C0D27D161449A4013D51B
:100410000023401C594152000ED1400840000122E7
:100420004B005205D34207D305204007C14201D5F6
:10043000B04900E0B0493046F0BD6B00002A00D062
:1004400001229A181F23203C1B1B01D5002302E028
:10045000E540281871410C0DD7D001242405091955
:10046000C407CD0740084908E40F28436144002C25
:10047000D5D00024401C61419A40D0D1CDE76A0517
:10048000520DD9D1C90FC907D5E79C4D4E000028A0
:1004900001D0012400E0002434195F00002A01D0BB
:1004A000012600E00026BE19954FAC420CD8AE42A2
:1004B0000AD8B44206D001256D05EC42BCD01046E6
:1004C0001946F0BD9942FCD000203946F0BDF0B588
:1004D0001FB40C460F46811A9F412546861A9D413E
:1004E00006D20125ED076F40401ABC4152187B41EE
:1004F000210D1E0D8D1BAC467D4D8D437ED07505A7
:100500006D0D7CD00D05AE46AC431B031B0B794D26
:1005100052429D41202366469B1B14D31746F74049
:10052000381800260090744160462F460741E419B0
:1005300000989D402818664116D4714671189A405B
:1005400025D5012320E093182A466A415200002B4A
:1005500000D0521C1E23203E9B1B002B61DD354129
:10056000EE1728186641E8D5001876415B1C9A40C2
:1005700000D3401C4B05F3181524E34010D3002B87
:1005800052D071467118D30FC01802D3491C05B060
:10059000F0BD0123DB079A42F9D140084000F6E79D
:1005A00001225205B21801D1002853D00123CC0AF0
:1005B000DB029943891E002A08D1020C03D0020CE9
:1005C0000004103902E00246002020390023550BB8
:1005D00005D112020823550B01D152010D23550CF0
:1005E00001D112011B1DD50C01D192009B1C150DD0
:1005F00001D152005B1C2025EE1A01E02CE022E024
:100600000546F54015439840CA1AE10769181305D5
:10061000C918002ABBDA032040070818C10FC90710
:100620000FE071466118B2E7F10740080843711006
:1006300071444A000CD001235B059A42A7D2C90F2E
:10064000C9070020A3E74905490D26D1002001E094
:100650000028F4D100219AE7284D6600002801D037
:10066000012100E0002171185F00002A01D001265D
:1006700000E00026BE19224FA94210D8AE420ED883
:10068000B14208D001256D05E94206D01946A802FD
:10069000414010467BE79C4201D0214677E700208D
:1006A000394674E710B50C465C4005D50124E407D3
:1006B0006340FFF70CFF10BDFFF778FE10BD30B4AC
:1006C0000C465C4004D50124E407634030BC6DE671
:1006D00030BCFCE670B50124E40761400D465D4086
:1006E00002D4FFF763FE70BD6340FFF7F0FE70BDFC
:1006F000FF0700000000F0FF0000F07F0000E0FFB7
:100700000000F87FF0B5F94D0C091E092C402E4071
:100710002F468BB0A7437DD0B543FCD0002E7AD0B6
:10072000002CFCD00D465D40ED0F2543AC1BFF2592
:10073000AD0464190894C502440DC9022143500D4B
:10074000DC0204430120C00701430443D2020191AB
:10075000200C110C00958C46010423468B430A9112
:1007600061460904E24D8A430991010A7D44491911
:100770008039097805464D4301266D18F605751B2D
:100780006943C90C640B891C4C436418B5012C1BCC
:10079000250C2E04B4434C434D43210C69188909A0
:1007A0000591009DE90701D00121C90704912C465C
:1007B00001996708CD072F434C08059DE10B4D4378
:1007C0002D0C29466646754302950D4645432E4637
:1007D000029D7D1BB44100950D465D4301942C0C98
:1007E0002F040D465543AE462D0C3D430295039410
:1007F0007546049C2D04641B049406D2029C039D40
:10080000641C002675410395029401AC70CC009FD6
:100810007D1B01E03EE162E1B441090400950791CE
:1008200001940599A4086143090C0C464443650BE7
:10083000E7040C4666467443A646640B3C430395A6
:1008400002947446049DE4042C1B049406D2029C7A
:10085000039D641C002675410395029401AC70CC85
:10086000009F7D1BB44101940C465C430095650FCD
:10087000E7000C465443A646640F3C43039502949C
:100880007446049DE4002C1B049406D2029C039D34
:10089000641C002675410395029401AC70CC009F46
:1008A0007D1BB441AE09AF06049DC900AD092F43BD
:1008B000049DA406AD060495079D3443691807916D
:1008C000059DE10B4D432D0C294666467543029567
:1008D0000D4645432E46029D7D1BB44100950D46B5
:1008E0005D4301942C0C2F040D465543AE462D0C50
:1008F0003D43029503947546049C2D04641B0494A7
:1009000006D2029C039D641C002675410395029447
:1009100001AC70CC009F7D1BB44101948C05069402
:10092000079C890A611800950791019C0599A40804
:100930006143090C0D464543680BEF040D466446C0
:1009400065436C0B3C43049FED047D1BAC4602D217
:100950000025641C6841009E019D371B85410846A7
:10096000584301950C46460FC5005443600F284379
:100970006546E4002C1B02D20025401C6E41019DFF
:100980003F1AB5412846BD09800628438446A00980
:10099000BF064E020699A40676180743079D00205D
:1009A00068410A99079019430020099B009060460E
:1009B000FF1913434041E20F64003A43A446044642
:1009C000D71A8C41A04203D90120009020463A4614
:1009D000C70F941840416246D20F22436446640018
:1009E0000494009CBE466400D71AA44604460297AD
:1009F0008C417746002F01D1A04204D96046401CAB
:100A00008446029A2046C40FA64694184041049A90
:100A10000546D20F224364466400D31A8D417146C5
:100A2000002901D1A84202D928461A46641C104365
:100A30000122002800D0164361020020079B89197B
:100A400004465C410223002C02DB49181346644132
:100A5000089DCE0A2D145D194B056705E10A2C058A
:100A60000D1908993E43C9076940002B08D09340EF
:100A700006D30022761C5141002B01D17608760066
:100A80001C4A002D43DB154241D0AA433FD03046DB
:100A90000BB0F0BD06180D464D41174C7642AC41E7
:100AA0001AD395181C465C41134A6D42A24113D3D8
:100AB000012252054C00D4420AD15C00D4420BD032
:100AC0004B4002D592021143E2E749004908DFE7B3
:100AD0005940C90FC90718E000200849D8E7054860
:100AE00001420DD10342F7D0F2E700000000FF07FA
:100AF000903B00000000F07F0000E0FF0000F87F66
:100B0000114859400143C01241400020C0E7012371
:100B1000089A9B069A4205DC032252078918C90FDE
:100B2000C907B5E7052252078918074A1143D212AF
:100B30005140ADE770B515461C4602460B462846A7
:100B40002146FFF7DFFD70BDFFFFFF7FF0B58B4C47
:100B50000F09254689B0BD437BD01D092646AE430B
:100B6000FAD00E465E402740F60F3E43254071D036
:100B700024012142FBD0FF24AD19A4042D1B0395B1
:100B800001252D05DB02DB0AC9022B43C90A2943D3
:100B90001E010901040F130F050121431701880BE2
:100BA000820391432D098C46A90B1E438A0395436A
:100BB000B30B9A0396433F09BA0B9403A7430296DB
:100BC0002E467E430497B6464E19D7190C46019619
:100BD000544305977E43371B7646BF1B3601B64606
:100BE000BE0B361900967646BC043719009C01D31B
:100BF000641C00946400002F01D001263443029E3F
:100C0000049F754366467E430496760034196E0051
:100C100034190094029C019E1C196643751BAE4654
:100C2000069465464519059C05956C4359437546E0
:100C30000891691A0191049E01465143A41B049135
:100C4000611A009C0791E10605D061090122114358
:100C500002E072E06EE06109089D00272C0A2D0673
:100C60006918049D7C412A0A2D066918019D62417C
:100C7000AC0DAD026D185441079A910D92025519B1
:100C80006141029A644658435443069B059A5A436D
:100C9000121A131B9A0E9B015B187A41010B000577
:100CA000C3185141220A200644195A419A4200D2DF
:100CB000491C01204002814203D315230226F6433A
:100CC00002E014230326F6432020C51AA940174644
:100CD000AF40DA400A4320460399D84009147318FC
:100CE00019055118039A3843D2075140AC4009D036
:100CF0000122944006D30022401C5141002C01D116
:100D0000400840001E4A934212D3012203989206E3
:100D1000904207DB0520400709181A480143C0121A
:100D2000414004E0032040070818C10FC907002014
:100D300009B0F0BD0020F107FAE705180C464C4158
:100D400011486D42A04115D394181A465A410E48D5
:100D5000644290410ED301204A004005824209D3EB
:100D60005A00824206D35940C90F084AC9070020D9
:100D70001143DDE700200649DAE700000000FF0725
:100D8000FE070000FFFFFF7F0000E0FF0000F07F94
:100D90000000F87F0121C9050123411842001B060C
:100DA000D3185B0E0AD0C1100722D206891840075B
:100DB0005242D14201D5520089187047090208D524
:100DC0000146002A03D0C10FC90700207047104612
:100DD0007047420202D000200249704707210905EE
:100DE0000143F4E70000F87FF0B5FF252D04C609A4
:100DF000C209FF2704462E400137CB093E43484035
:100E00002A402B400746002A6BD0002B69D0AA420B
:100E100067D0AB4265D0002800DA32460125ED05E7
:100E200029432C4309022002090AD21A4B0C7F24C1
:100E3000E31A434C000A7C44E35C7D242404121929
:100E400014145B00A218884201D3521C00E0400039
:100E500049420C465C4324115C43DB016415E318F2
:100E6000040A5C43C502200D0C4644436419250A5C
:100E70005D432303EC0C0D46654300030019EB189A
:100E80004C42A34201D35B18401CD4052018002B10
:100E900007D05B00C91804D3401C002901D14008C9
:100EA00040003F2189048A4209D3002A08DC110648
:100EB000090F04D0032149074018C00FC007F0BD37
:100EC00001224100120689187F2252069142F6D271
:100ED00005214907C84201D59010F0BDFF20C0058B
:100EE000F0BD002F00DA32461648AA4207D2AB42C4
:100EF00005D21902090E17D0F80FC007F0BDFF2563
:100F000063002D06AB42F9D84900A942F6D8AB429E
:100F100001D1A942F2D0A94201D1002101E0610032
:100F20004908D0050843F0BD1102090EFBD0FF208F
:100F30000243D005F0BD0A460146104654E70000C2
:100F4000463500000000C07F1F22030C02D10F2293
:100F500000041CD0030E01D10002083A030F01D196
:100F60000001121F830F01D18000921E002801DBB7
:100F70004000521ED20551180212511819229040F9
:100F800004D3491C002801D149084900084670478C
:100F9000C10FC90700D04042012292071143D3E795
:100FA00001218907D0E710B50346080001D02020B1
:100FB00001E0190002D00C0C02D003E0084610BD7D
:100FC000090410380C0E01D1090208380C0F01D1A8
:100FD0000901001F8C0F01D18900801E002901DB4F
:100FE0004900401E1C46C4402143C405A2182024C9
:100FF000241A080A801819229140E0D3A3400B4319
:10100000401C002BDBD14008400010BDCA0FD207A6
:1010100003D00B460021404299419D23DB051A4332
:10102000C1E79D22D205BEE7F8B5264C4E00069DCD
:10103000A6420AD8A64201D1002806D15E00A642E7
:1010400003D8A6420AD1002A08D00D242404254240
:1010500033D02946002000F05EF8F8BD0C461C4352
:1010600011D4994207D0C81A02D3EFF30080F8BD1B
:10107000EFF30080F8BD801A02D3EFF30080F8BDD3
:10108000EFF30080F8BD09242407E5008B4207D068
:10109000581A02D3EFF3008006E0EFF3008007E078
:1010A000101A03D3EFF30080A04303E0EFF30080B6
:1010B000A043284380F30088F8BD009500F042F873
:1010C000F8BD00000000E0FF754600F045F8AE46B0
:1010D000050069465346C008C000854618B020B5D3
:1010E000FFF750F860BCB64600260027C0C5C0C553
:1010F000C0C5C0C5C0C5C0C5C0C5C0C5403D490804
:1011000049008D46704710B50446C046C04620468B
:10111000FFF727F810BDC80212D54803400F00287A
:1011200004D0C803C043012188407047EFF300801A
:101130000001000903210907084380F30088704774
:101140000020704710B500200249029A00F008F80C
:1011500010BD00000000F87F00487047000100202B
:1011600010B50C461107090F092904D00A290AD025
:1011700008290CD104E011460820FFF7CCFF06E057
:10118000510606D501E0510601D50120C0072146D0
:1011900010BDD10607D501010909CC084907000E89
:1011A0000006044309E0410F20024907000A0143F9
:1011B000200E00061D22D14101430846E7E700004A
:1011C00001491820ABBEFEE7260002007047000070
:1011D00086B0009101460098059104A90880059801
:1011E0000390039809884018029001A90020087014
:1011F000FFE70398029988420CD2FFE701A90A7819
:101200000398007842400548805C08700398401CB1
:101210000390EEE701A8007806B07047C0430008CD
:1012200080B50020042101F0A5FD012808D1FFE7C9
:101230000020042101F08CFD124800F025F8FFE7A2
:101240000020022101F096FD012809D1FFE70020CE
:10125000022101F07DFD0B48803000F015F8FFE71A
:101260000020082101F086FD012805D1FFE70020BC
:10127000082101F06DFDFFE70020012101F068FD6C
:1012800080BDC04660010020B0B585B0049000204C
:101290000390FFE70398042800DD8AE00398042800
:1012A00048D1FFE700200290FFE702980F2840DCBA
:1012B000FFE704980299C900405A009004990298E7
:1012C000C000401840880099484300900098614948
:1012D000401800900098000B0090009901A8018030
:1012E000048803998B00544AD1580919D1500088B9
:1012F00003994A005249895A884206DDFFE701985E
:1013000003994A004E498852FFE701A800880399D3
:101310004A004D49895A884206DAFFE70198039945
:101320004A0049498852FFE7FFE70298401C0290B3
:10133000BBE739E000200290FFE702980F2832DC7B
:10134000FFE7049802998900039A89184900415AD5
:1013500001A80180048803998B00374AD1580919E4
:10136000D150008803994A003549895A884206DDE0
:10137000FFE7019803994A0031498852FFE701A825
:10138000008803994A003049895A884206DAFFE703
:10139000019803994A002C498852FFE7FFE7029819
:1013A000401C0290C9E7FFE7FFE70398401C039049
:1013B00070E71F480168103101600068C0087D288F
:1013C00033D3FFE700200390FFE70398042822DCD3
:1013D000FFE703988200184B9858184988500398E3
:1013E0004400174A105B17490853039845001649F3
:1013F000485B164C60530398840000201851039BEF
:101400005B00D0520398420011488852FFE70398CE
:10141000401C0390D9E706490868064A106000207E
:101420000860F24901200870FFE705B0B0BDC04672
:10143000EC020020000500202C05002018050020EB
:10144000F802002004050020020300200E05002001
:10145000FFFF0000FF01000080B584B003900398F7
:1014600000F0EAFE01910090FFE70199009800F07A
:101470002BF808B9FFE7F8E704B080BD10B58AB0D3
:101480000991089007930692069807990391029094
:10149000099A089B03980299C91A904102910390F6
:1014A00002980399FFF7BDFD0590059801903A4811
:1014B0000068FFF775FD01460198FFF795FC059060
:1014C00005980AB010BDC04680B586B00391029061
:1014D00000F022F8019100900199009B0398029A74
:1014E000D21A884103D2FFE70120059002E00020D4
:1014F0000590FFE7059806B080BD00000148006830
:101500007047C046100300200248016840F20010F6
:10151000401A70471403002084B0FFE712480068A7
:101520000090124800680190FFE700980E49096892
:101530008842F3D1FFE700980021039102900398BD
:1015400002990A0A0006801809060291039001997F
:101550000748421A03990298104303910290029897
:10156000039904B07047C0464005002018E000E031
:10157000FFFFFF0080B584B0FFF7CEFF039102901C
:1015800002980399044A12680023FEF725FE019190
:101590000090009804B080BD00000020F0B59DB020
:1015A00000200E90FFE70E9804282CDCFFE70E9831
:1015B0008200954900200D9088500E998A00934929
:1015C00088500E998A00924988500E998A00914954
:1015D00088500E998A00904988500E994A008F4988
:1015E00088520E994A008E4988520E994A008D49B8
:1015F00088520E9842008C49D2488852FFE70E98D4
:10160000401C0E90CFE7794900200A900870784975
:10161000087040F2005001F05FFF40F2106001F0EE
:101620005BFFC64801F058FF724801F055FF0820E3
:10163000069001F051FD0A9A09200390C00600901F
:1016400003210191402301F07EFC009801990A9A40
:101650008023049301F077FC01F08EF80A9801F0E2
:1016600003FA0A9801F072F801210C91084601F082
:10167000DFF80C980521490401F018F90C9940F2A3
:101680000016304601F0FEF90A990220079001F099
:10169000F9F90A9940F20044204601F0F3F901F00B
:1016A0004BFA0A990420089001F074F808990C98F4
:1016B00001F018F8019A0A98062101F027F9019A19
:1016C0000C980721029101F021F9029A0798112143
:1016D00001F01CF90198029A102101F017F901F0AC
:1016E0000DF901F091F8444D28463146FEF718FEF9
:1016F0000FA8059001F0A0FB0A9801F051FA039899
:10170000079901F0C2FC304601F01CFF049A0599CC
:101710000A980C9B394F0F971096087611951294E2
:101720004B768876139242F20002149201F074FA1A
:101730000A9801F027FA0A980C9901F05DFA0699C7
:101740000A9801F059FA08990A9801F055FA079990
:101750000A9801F051FA07990A9801F0E9FA0899F4
:101760000A9801F0E5FA0A9801F0FEF924480B9076
:1017700002F0C8F916A8099002F07EFB09990A9AAE
:101780000B98204B0B8047231893CA800A7302F0F2
:1017900065FA0A990B980C9B1AAA91801380D18044
:1017A00051801181518101F057FF0A990B980C9AD1
:1017B00002F01CF90A990B98602202F0C7F80A9A05
:1017C0000B98114602F03CF90B9801F03BFF0B9887
:1017D0000C9902F039FB0B9802F008FA01F01CF8A2
:1017E0000C98FFF739FE1DB0F0BDC0466002002026
:1017F000F002002009060000600100204C24014096
:1018000000400140E70300008C0200207802002025
:10181000640200202C050020180500200E05002081
:10182000F8020020040500200203002080B590B0DB
:10183000414801F051FE414801F04EFE0920C0062A
:1018400000900122079204230693114601F07BFBCE
:101850000098069B00220492114601F0BBFB009801
:10186000069901F060FB0098079A0221059141F268
:101870000003019301F067FB0098019A059901F0BC
:10188000F2FA0D200321039101F0FFFB2C48089090
:1018900002F038F909A8029002F0EEFA0299049ACF
:1018A00008980A804A808A80264B0B93CA800A7364
:1018B00002F0D4F9089802F01CF90499089802F093
:1018C0008BFA0699089802F0EBFA0898702102F05A
:1018D00043FA039B049A0898114602F090F9049980
:1018E000089802F093FA0799089802F04EFA0599C1
:1018F000089802F04AFA0699089802F046FA089801
:10190000082102F042FA0898102102F03EFA0898E5
:10191000202102F03AFA0898402102F036FA08989D
:10192000802102F032FA0799089802F024FA089808
:1019300002F05CF910B080BD0B060000110500003C
:10194000002C0140FFFF000080B503490020086023
:10195000024800F0A3FC80BD40050020FFFFFF000F
:1019600080B584B0034603A8037002910192007809
:1019700081005A484058FFF70DFA00231A4602F03A
:101980001EFC58B9FFE702980068009001980068B3
:1019900002990860009801990860FFE704B080BDD3
:1019A00080B58AB009AA0792107008910898FFF7CD
:1019B000F1F93C4A3C4BFFF7C9F8FEF7B9FC014688
:1019C00007980891007802282ED1FFE73748007861
:1019D000C00708B3FFE7364806900068FFF7DAF95A
:1019E000029003910898FFF7D5F9324A324BFFF77E
:1019F000ADF80246029804920A46039905922F4ACE
:101A00002F4BFFF7A3F8049A059BFEF74BFEFEF75A
:101A10008FFC0699086003E0089825490860FFE7F5
:101A2000224901200870FFE721480068FFF7B2F95A
:101A300002460B4623482449FEF764FE00900191BC
:101A40000898FFF7A7F9009A019BFFF77FF8FEF7C8
:101A50006FFC089009A8007803280AD0FFE709A8BE
:101A6000007881001D484158089802F0F1FB089069
:101A700014E00898FFF78EF902460B461148134907
:101A8000FEF71DFE124A134BFEF73CFE0022124BDE
:101A9000FEF708FEFEF74CFC0890FFE708980AB036
:101AA00080BDC0466666666666664A3F0C030020D7
:101AB000040000207B14AE47E17A843FAE47E17A10
:101AC00014AEEF3F333333333333F33F3333F73F26
:101AD00022FDF675E09C713F00003940C0440008CB
:101AE00082B001A90020087012480068F0B1FFE739
:101AF000114801681148405C01A90870FFE70D48D2
:101B000050E8000F00900098401E0090FFE70099F9
:101B1000084A42E800100028F1D1FFE706490868AA
:101B2000401C08600868C0B20860FFE701A80078A0
:101B300002B07047100300201803002000040020AA
:101B400080B582B001A9087013480068FE2821D82A
:101B5000FFE7019811490A6811498854FFE70E48C8
:101B600050E8000F00900098401C0090FFE700999B
:101B7000094A42E800100028F1D1FFE70749086848
:101B8000401C08600868C0B208600648072102F0DF
:101B900095FAFFE702B080BD140300202403002063
:101BA000000600200038014080B586B0FFF7A6FC93
:101BB000049002A900200870049838B9FFE702A831
:101BC00000780121084005A90870D2E06B484168FF
:101BD0000068FFF779FC20B1FFE769490020087031
:101BE000FFE7FFE7049800B9BCE0FFF779FF03A91E
:101BF00008700498401E0490614800780190042801
:101C000000D9AEE001998A0001A080188746C0463D
:101C100000F008B800F021B800F03CB800F057B868
:101C200000F072B803A80078802815D1FFE70A20D9
:101C300000F002FB0A4651494A6008605149002001
:101C4000086003980B68504AD0540868401C08602C
:101C50004B4901200870FFE783E003A80078802843
:101C600013D1FFE70A2000F0E7FA0A4643494A6029
:101C70000860039843490B68434AD0540868401CE5
:101C800008603F490220087003E03D4900200870C9
:101C9000FFE766E003A80078802813D1FFE70A2059
:101CA00000F0CAFA0A4635494A6008600398354987
:101CB0000B68354AD0540868401C0860304903203E
:101CC000087003E02E4900200870FFE749E003A8F0
:101CD0000078802813D1FFE70A2000F0ADFA0A4609
:101CE00026494A600860039826490B68264AD05462
:101CF0000868401C086022490420087003E020495D
:101D000000200870FFE72CE00A2000F095FA0A4650
:101D10001A494A60086003991A4803681A4AD1545C
:101D20000168491C016000680C2819D1FFE71648BA
:101D3000418900910A21FFF74BFA01460098884239
:101D40000AD1FFE710480079032804D1FFE702A970
:101D500001200870FFE7FFE7094900200870FFE74E
:101D6000FFE73FE702A800780121084005A90870B5
:101D7000FFE705A8007806B080BDC04640030020FC
:101D80002C030020280300203003002082B00146ED
:101D9000684601700078052803DBFFE7002001900A
:101DA00006E0684600788100684840580190FFE7E7
:101DB000019802B07047C04682B001466846017083
:101DC0000078052803DBFFE70020019006E0684665
:101DD000007881005F4840580190FFE7019802B009
:101DE0007047C04682B001466846017000780528F9
:101DF00003DBFFE70020019006E0684600788100E1
:101E0000534840580190FFE7019802B07047C04620
:101E1000B14800687047C04610B58CB0494800789A
:101E2000C00700B98BE00AA900200870FFE70AA8E4
:101E30000078042831DCFFE70AA8089000788100C8
:101E4000069145484058FFF7ABF8069B01460898B5
:101E50003E4AD1500078079041004048405AFFF771
:101E60009FF8079A0146089893003A4AD1500078A3
:101E7000099041003A48405AFFF792F809998A00C0
:101E80003349885037480068FFF78AF80B90FFE71E
:101E90000A98401C0AA90870C9E72A49002008705E
:101EA0000AA90870FFE70AA80078042843DCFFE7C6
:101EB0000B990AA8059000788200019223480290AD
:101EC0008058FEF791FF019B029A01460598D15078
:101ED000007882001E4903918958FFF761FD02993D
:101EE000039B024605980478A4001A5100788200EA
:101EF0008958FFF755FD029A0146059803789B0023
:101F0000D15000788200134904918958FFF748FDA9
:101F10000399049A034605980478A40013510078A5
:101F20008300C918D218FFF71BFDFFE70A98401C71
:101F30000AA90870B7E7044901200870FFE70CB050
:101F400010BDC04660020020F002002064020020A4
:101F50008C020020780200201805002004050020D3
:101F60000E0500200005002080B592B000200990E9
:101F70000890534841680068FFF7A6FA00B99DE051
:101F8000FFE7FFF7C9FA119110904E48059001F054
:101F9000A6FD014605980D914B4909680C9101F089
:101FA0009EFD0B90FFF7B8FA0F910E90FFE70B998B
:101FB0000D9A01209142049010D8FFE711991098D2
:101FC0000F9B0E9AFFF75AFAFEF7E4FE3F4A404B8A
:101FD00002F000F9411E88410490FFE70498C00711
:101FE0000028CED1FFE70C980022099208900998AA
:101FF00008990B0C0004C0180904089109900D9B66
:1020000009980899C9185041089109903149086800
:102010004A68079206900898099A4A6008600998E9
:10202000089A0799069BD21A884109D3FFE7079AB5
:10203000069B09980899C91A9041089109900EE0E9
:10204000099A089B07980699C91A9041069107902A
:1020500007990698C043C94309910890FFE708987B
:102060000999FEF7DEFF1C490291086014480390AD
:1020700041680068119B109AFFF700FAFEF78AFE8C
:102080000022164BFEF70EFB0246029800920191C9
:102090000068FEF77FFE009A019BFEF733FBFEF718
:1020A00047F9029908601199109840F2E83200F05F
:1020B0009FF80A4603994A600860FFE712B080BDA6
:1020C00050030020002C0140A0020020F168E388AA
:1020D000B5F8D43E48030020F40200200000F03F91
:1020E00080B588B03F4905913F480860FFF742FA44
:1020F0000599486000200690FFF774FE059A014696
:102100000698D160FFF742FE059A014606981161D4
:10211000FFF752FE0599886001200190FFF762FEEB
:10212000059A014601989161FFF730FE059A014634
:102130000198D161FFF740FE0599486104200290A3
:10214000FFF750FE059A014602985162FFF71EFE06
:10215000059A014602989162FFF72EFE05990862E2
:1021600002200390FFF73EFE059A01460398116393
:10217000FFF70CFE059A014603985163FFF71CFE1A
:102180000599C862FFF744FE059988630320FFF7AD
:10219000FDFD069902460598C263144A0264442272
:1021A000815246210491FFF713F8049B059A0146DA
:1021B0000698D15207A90880FFE707A8008847289A
:1021C0000CD8FFE707A801880648405CFFF7B8FC79
:1021D000FFE70798401C07A90880EEE700F058F8D1
:1021E00008B080BDA4020020808080803E764265D9
:1021F00080B588B0079106900592244800680023B6
:10220000019303930290059A02980399FDF7CCFF7E
:10221000019B039102900298039940F2E832FDF786
:10222000DBFF0391029007990698039A029BC0185E
:10223000514108B080BDC04680B588B00790FFF717
:102240006BF90591049011480068002301930393F2
:102250000290079A02980399FDF7A6FF019B03914C
:1022600002900298039940F2E832FDF7B5FF03911E
:102270000290039A029B05980499C9185041049151
:1022800005900498059908B080BDC0460000002064
:1022900080B5C648072101F011FF80BD80B584B02C
:1022A00002900298401E000E18B1FFE70120039033
:1022B00011E00298401E0949086000200190C043C7
:1022C000032100F08FF9019805490860054A0721AC
:1022D00011600390FFE7039804B080BD14E000E0B4
:1022E00018E000E010E000E002490868401C0860C7
:1022F0007047C0464005002080B582B0204908687C
:10230000012210430860FFE71D480068800700288D
:1023100001D4FFE7F8E71B4908681B4A1040086032
:1023200008681A4A1040086015490868184A1040A1
:102330000860184908680F22904308601649086829
:1023400040F20312904308600868012200921304CF
:10235000984308600868D307984308600F490868E5
:10236000904308600E4900200190086001F066F972
:1023700000980199C00600F09FFE02B080BDC046E3
:1023800000100240041002400C00FF08FFFFC2775B
:10239000FFFFF2FE2C1002403010024034100240C9
:1023A0000810024080B50A48012101F0F8FC70B124
:1023B000FFE70748012101F0E8FC06490868401CD6
:1023C00008600920C006042100F0B5FDFFE780BDCC
:1023D000002C0140A002002080B582B0FFF794F8E5
:1023E000482808D3FFE7FFF7DFFB18B1FFE7FFF747
:1023F00077FEFFE7FFE702B080BD000080B582B046
:102400006A48284901F08CFED8B1FFE7674801F01F
:10241000B9FD01A9087060480068FE2810D8FFE7E0
:1024200001985E490B68204AD0545B4A1068401CF2
:1024300010600868401C08600868C0B20860FFE7C8
:10244000FFE75A48194901F06BFEF0B1FFE74F482A
:102450000068A0B1FFE74F48009001681448415C54
:10246000524801F097FD0099484A1068401E1060DC
:102470000868401C08600868C0B2086004E04B4867
:10248000072101F00AFEFFE7FFE74848094901F08C
:1024900047FE28B1FFE74548064901F021FEFFE766
:1024A00002B080BD050005070004002007000707F3
:1024B000000600200500030780B58AB00990334864
:1024C00000210691016032480160324801603248C3
:1024D000016032480160324801601B2000F0D5FDE8
:1024E000304800F0F9FF304800F0F6FF0920C00640
:1024F00003900121049140F20022019200F0B3FC0C
:102500000398049940F20042059200F0ACFC019B54
:102510000398049A0221029100F015FD019B039893
:10252000049A069900F056FD02990398049A059BB7
:1025300000F009FD0398049A059B069900F04AFDF6
:102540001A48089001F032FD0898099901F0C2FC80
:102550000699089801F054FD08981F21079101F091
:1025600065FD0799089801F078FD0898082101F0A9
:1025700017FE0898042101F004FE089801F084FD7C
:102580000898052101F09AFD0AB080BD14030020CF
:10259000240300201C03002010030020200300203F
:1025A00018030020110500000E060000003801404D
:1025B00081B00146684601700021405600280DD4C4
:1025C000FFE70021684641561F200A4602400120CD
:1025D000904049098900024A8850FFE701B07047DE
:1025E00000E100E070B582B0024601A802700091DF
:1025F00000214056002816D4FFE7002401A90857FF
:102600000322D3431840364A805809578C07E50EF9
:10261000FF24AC40A043009CA401E4B2AC402043A2
:10262000194088501AE001A908780F242040083882
:102630000322D3431840294A8058002549578D0763
:10264000EE0EFF25B540A843009DAD01EDB2B540AB
:1026500028432140083919408850FFE702B070BD77
:1026600070B582B0024601A8027000910021405668
:10267000002816D4FFE7002401A908570322D343FA
:102680001840174A805809578C07E50EFF24AC40C4
:10269000A043009CA401E4B2AC4020431940885000
:1026A0001AE001A908780F24204008380322D343F8
:1026B00018400A4A8058002549578D07EE0EFF251D
:1026C000B540A843009DAD01EDB2B540284321407F
:1026D000083919408850FFE702B070BD1CED00E0DA
:1026E00000E400E083B0024602A802700191007885
:1026F0000090012804D0FFE7009802280FD01DE0C9
:10270000D4490A680F20000582430A60019A120525
:102710000D4BD21802400868104308600FE00949C9
:102720000A680320000582430A60019A1205064BDD
:10273000D218024008681043086000E0FFE703B0C9
:102740007047C046382401400000F0FF81B000907F
:10275000009838B1FFE7F749086840F600021043D7
:10276000086006E0F349086840F6000290430860FC
:10277000FFE701B07047C04680B582B004480190C1
:1027800000F0CEFE019800F0B9FE02B080BDC04658
:102790000903000083B0024602A8027001AA11706A
:1027A000E34A116841F600039943116000780090F4
:1027B000012808D0FFE70098022819D0FFE7009809
:1027C00004281CD01CE0DA4908684EF2000290434D
:1027D00008600198400342F20002801A82B2086841
:1027E00010430860086840F600021043086008E0E3
:1027F000CF49086841F200021043086001E0FFE79A
:10280000FFE703B07047C046CF49086840F20012A6
:10281000104308607047C046CB480068C00730B915
:10282000FFE7C9490868012210430860FFE77047C5
:1028300082B001AA1070684601700078D0B1FFE73D
:1028400001A80078C00738B1FFE7BF490868012236
:10285000120510430860FFE701A8007880070028F0
:1028600007D5FFE7B849086848F20002104308603E
:10287000FFE719E001A80078C00738B1FFE7B249C7
:1028800008680122120590430860FFE701A800785C
:102890008007002807D5FFE7AB49086848F2000227
:1028A00090430860FFE7FFE702B0704783B002463D
:1028B00002A80270019100780090012804D0FFE77F
:1028C000009802280BD015E09F490868072252049F
:1028D00090430860019A0868104308600BE09A4929
:1028E000086847F2000290430860019A08681043A4
:1028F000086000E0FFE703B07047C046024908687F
:1029000001229043086070478024014010B585B0D3
:10291000034604A8037003AB1970029200780528DF
:1029200018D8FFE74D490868019004AB1C780520D2
:10293000024662431F249440019AA243019203AAD3
:1029400012781B78584382400198104301900198F7
:10295000086040E004A800780B281AD8FFE73E4939
:102960000868019004AB1C780520024662431E3AB9
:102970001F249440019AA243019203AA12781B7863
:1029800058431E3882400198104301900198086016
:1029900020E004A800780F281AD8FFE72D4908681E
:1029A000019004AB1C780520024662433C3A1F2488
:1029B0009440019AA243019203AA12781B785843CB
:1029C0003C3882400198104301900198086000E073
:1029D000FFE7FFE7FFE703A80078092817D8FFE71C
:1029E00020490868009003AB1C780320024662432C
:1029F00007249440009AA2430092029A1B785843FD
:102A00008240009810430090009808601FE003A8DF
:102A10000078122819D8FFE711490868009003AB25
:102A20001C780320024662431E3A07249440009A11
:102A3000A2430092029A1B7858431E3882400098A5
:102A4000104300900098086000E0FFE7FFE705B042
:102A500010BDC0462C2401403024014034240140E4
:102A60000C2401401024014081B0009030490868D6
:102A70000322120690430860009A08681043086019
:102A800001B0704782B0019068460170007830B3A1
:102A9000FFE701A84078C00738B1FFE7244908687C
:102AA00040F2001210430860FFE701A84078400799
:102AB000002807D5FFE71E49086840F2004210438E
:102AC0000860FFE701A800788007002806D5FFE727
:102AD0001D490868022210430860FFE725E001A8AD
:102AE0004078C00738B1FFE71149086840F200128A
:102AF00090430860FFE701A840784007002807D509
:102B0000FFE70B49086840F2004290430860FFE786
:102B100001A800788007002806D5FFE70A49086861
:102B2000022290430860FFE7FFE702B07047C0460B
:102B30000424014008240140034908680122D20509
:102B4000104308607047C0460824014081B0014628
:102B500068460170007814214143B64A8858012321
:102B60009843885001B0704781B0014668460170B3
:102B7000007814214143AF4A8858012318438850F4
:102B800001B0704781B00146684601700078142199
:102B90004143A84A885820231843885001B0704701
:102BA000B0B581B001466846017001781422134621
:102BB0004B43A04C19590125A943195101781346DB
:102BC0004B4300211951047813466343574C195164
:102BD000047813466343534C195103785A43524BBC
:102BE000D150007880000F2282406149086810436C
:102BF000086001B0B0BDC04682B0024601A80270B4
:102C00000091009A0078800082405949086810437A
:102C1000086002B07047C046B0B584B0024603A851
:102C20000090027002910078FFF790FF009B0298DD
:102C300000681C7814210A4662433A4C10510298ED
:102C400080681C780A466243374C10510298008A0B
:102C50001C780A466243354C10511A780846504396
:102C6000744A80580190019843F60074A043019083
:102C700002984468C5682C43406904430198204386
:102C8000019001981B78594388500298007E0128D2
:102C90000AD1FFE703A8007814214143654A885808
:102CA00040231843885009E003A8007814214143C9
:102CB000604A8858402398438850FFE70298407E36
:102CC00001280AD1FFE703A8007814214143594A9B
:102CD000885880231843885009E003A800781421FD
:102CE0004143544A8858802398438850FFE702980C
:102CF000807E50B9FFE703A80078142141434D4A74
:102D0000885810239843885009E003A800781421BC
:102D10004143484A8858102318438850FFE704B0BD
:102D2000B0BDC04610000240140002400C0002403A
:102D300082B0024601A802700091009B0078142125
:102D400041433C4A88581843885002B07047C046F7
:102D500082B0024601A802700091009A00788000BB
:102D60008240034908681043086002B07047C046BB
:102D70000400024086B004AA107003910020029063
:102D8000019003980090022808D0FFE700980428DB
:102D900016D0FFE70098082824D035E024480168C1
:102DA000039A04A803789B009A401140019101788E
:102DB000142048431F49405802210840029024E053
:102DC0001B480168039A04A803789B009A401140AD
:102DD00001910178142048431649405804210840C5
:102DE000029012E012480168039A04A803789B003D
:102DF0009A40114001910178142048430D494058F0
:102E000008210840029000E0FFE7019838B1FFE791
:102E1000029820B1FFE705A90120087003E005A989
:102E200000200870FFE705A8007806B07047C0468C
:102E3000000002400800024081B00090009900208C
:102E400008600099486000990876009988600099A8
:102E5000C8600099487600990861009988760099C1
:102E6000486101B0704786B00590049103920598BF
:102E7000006A01900598406A009002A9002008802D
:102E8000FFE702A8008807281DD8FFE702A80188ED
:102E90000398C840C00780B1FFE702A801888900F5
:102EA0000F228A4001999143019104990088800082
:102EB0008140019808430190FFE7FFE70298401C1A
:102EC00002A90880DDE702A908200880FFE702A820
:102ED00000880F281FD8FFE702A801880398C84080
:102EE000C00790B1FFE702A80188890020390F22AE
:102EF0008A4000999143009104990088800020380D
:102F00008140009808430090FFE7FFE70298401CCB
:102F100002A90880DBE701980599086200980599E5
:102F2000486206B0704782B0019000910098019904
:102F3000886202B0704782B00190009100980199B8
:102F4000C86202B0704787B006900591049203935F
:102F50000698006801900698C068009002A90020B9
:102F60000880FFE702A800880F282BD8FFE702A8F7
:102F700001880398C840C007F0B1FFE702A80188A4
:102F80004900032213468B40019999430191059B07
:102F9000018849008B40019919430191018849003A
:102FA0008A40009991430091049900884000814033
:102FB000009808430090FFE7FFE70298401C02A931
:102FC0000880CFE701980699086000980699C860C4
:102FD00007B0704710B586B0059004A80170039241
:102FE00002930078012806D1FFE7029A0599486804
:102FF0001043486005E0029A05994868904348608C
:10300000FFE705988068009001A900200880FFE78D
:1030100001A800880F281DD8FFE701A801880298A1
:10302000C840C00780B1FFE701A80188490003221A
:103030008A400099914300910399008840008140A3
:10304000009808430090FFE7FFE70198401C01A9A2
:103050000880DDE700980599886006B010BD80B54E
:1030600082B000200190FEF76FFCFEF797FAFEF7A2
:10307000DDFB42F28050FFF71FFAFFE7FEF7CCFEC0
:10308000FFF7AAF9FEF770FFF8E780B584B00A46AB
:10309000014603A80190017002A90A700022009263
:1030A00080560978FFF7DCFA009901984056FFF73F
:1030B0007FFA04B080BD000082B0019000910198B9
:1030C0000099034A114008430249086002B0704762
:1030D00080FFFF1F08ED00E082B0014601A80170EB
:1030E000F64A11684CF2000399431160F74A1168DF
:1030F000594B1940116000780090092800D9A7E0C9
:1031000000998A0001A080188746C04600F012B8D6
:1031100000F01CB800F026B800F02EB800F03BB864
:1031200000F046B800F056B800F061B800F071B891
:1031300000F07CB8E5490868012212049043086059
:10314000086840F200129043086082E0DF49086896
:103150000122120410430860086840F200129043F4
:10316000086076E0D54908680860D849086840F2E8
:103170000012104308606CE0D04908680860D34929
:1031800008680122D20710430860086840F2001264
:10319000104308605DE0C949086844F2000210432A
:1031A0000860CA49086840F200121043086050E005
:1031B000C249086844F2000210430860C349086825
:1031C0000122D20710430860086840F20012104341
:1031D00008603EE0B949086848F200021043086000
:1031E000BA49086840F200121043086031E0B34960
:1031F000086848F2000210430860B44908680122D8
:10320000D20710430860086840F2001210430860BB
:103210001FE0AA4908684CF2000210430860AB495D
:10322000086840F200121043086012E0A3490868E1
:103230004CF2000210430860A44908680122D2073A
:1032400010430860086840F200121043086000E074
:10325000FFE702B07047C046FFFEFE7F9CB01BA98F
:103260000870002001901A901990189017901690ED
:103270001590149013901290119010900F900E9042
:103280000D900C900B908B490A918B4909910890F5
:1032900007900691059004910390E54800680C2181
:1032A000084080081A901A98029040B1FFE70298EF
:1032B000012807D0FFE70298022806D044E08248A0
:1032C000169044E08048169041E0D94801680F22EA
:1032D00092041140890C109100680121C906084030
:1032E000C00E0F900F98012804D1FFE710981130FD
:1032F00010900BE010980F2803D1FFE710201090DA
:1033000003E01098801C1090FFE7FFE7C8480068B2
:10331000012109040840000C0E900E9870B1FFE7DF
:10332000684800680F210840401C0D900D996648C0
:10333000B0FBF1F110984843169004E010996048F2
:1033400048431690FFE702E05F481690FFE7B84851
:103350000168C9B209090C910C9A07A9895C0B9103
:1033600016990B9AD1401591016840F200721140F4
:10337000090A0C910C9A05A9895C0B9115990B9A75
:10338000D1401491006843F600010840C00A0C9037
:103390000C9903A8405C0B9015980B99C8401390AA
:1033A0001BA800780090052800D97FE000998A00CA
:1033B00001A080188746C04600F00AB800F00BB89C
:1033C00000F00CB800F00DB800F00EB800F040B8F6
:1033D000169817906BE01598179068E0149817905E
:1033E00065E01398179062E03848006840F20011D9
:1033F000084088420FD0FFE73448006801210904E3
:103400000840884203D0FFE73248129002E030487B
:103410001290FFE719E08648006880B2800B19908F
:103420002A480068C00F1890189838B1FFE715981F
:103430001999491CB0FBF1F0129005E01398199905
:10344000B0FBF1F01290FFE7FFE7129817902EE023
:103450001E480068800718B9FFE71398119022E012
:103460001A48006803210840012803D1FFE7169895
:10347000119017E01548006803210840022804D184
:10348000FFE748F2000011900BE0104800680321AC
:103490000840032803D1FFE70B48119000E0FFE745
:1034A000FFE7FFE7FFE71198179000E0FFE71798A5
:1034B0001CB070470607080901020304041002400B
:1034C00000093D002C10024000127A00301002402A
:1034D000003FAB01809FD50081B001466846018066
:1034E00000881F220146114001238B4081094E4A6A
:1034F00088581843885001B07047C04681B00146D3
:103500006846018000881F220146114001238B403C
:103510008109454A88589843885001B07047C04691
:1035200081B001466846018000881F220146114093
:1035300001238B4081093C4A88581843885001B0C8
:103540007047C04681B00090009A034908689043D4
:10355000086001B07047C0460000014084B0002000
:103560000390029030490868012210430860FFE789
:103570000398401C03902C480068022108400290E8
:10358000FFE702990020019041B9FFE7039840F25C
:103590000051401A411E88410190FFE70198C00781
:1035A0000028E5D1FFE7204800688007002802D402
:1035B000FFE7FFE7FEE71D490868022210430522E6
:1035C000904308601A49009108680860086808601C
:1035D000086808600868174A104008600868164ABA
:1035E0001043086010490868012212061043086061
:1035F000FFE70D4800688001002801D4FFE7F8E7E5
:103600000B490868032290430860086802221043AF
:103610000860FFE7064800680007002801D4FFE7BC
:10362000F8E704B07047C046001002400020024096
:1036300004100240FFFFC2F70000040880B5FFF746
:103640008DFF80BD81B000900099086880221043F2
:10365000086001B07047000084B0039002A80180A8
:10366000019200880090032800D964E100998A0043
:1036700001A080188746C04600F006B800F063B885
:1036800000F0CBB800F023B90399086A01229043F7
:10369000086203998869032290438861019802882F
:1036A0000399086A104308620399086A022290434A
:1036B0000862019882880399086A10430862039897
:1036C0009E4988420FD0FFE703989D4988420AD05F
:1036D000FFE703989B49884205D0FFE703989A4982
:1036E00088422FD1FFE70399086A042290430862B9
:1036F000019842880399086A104308620399086A8E
:103700000822904308620198C2880399086A10430E
:1037100008620399486840F200129043486001989B
:10372000028903994868104348600399486840F249
:1037300000229043486001984289039948681043E9
:103740004860FFE7F8E00399086A10229043086296
:103750000399886940F2003290438861019800889B
:1037600002010399086A104308620399086A20223B
:10377000904308620198808802010399086A104307
:10378000086203986D49884233D1FFE70399086ABC
:103790004022904308620198408802010399086A18
:1037A000104308620399086A8022904308620198D6
:1037B000C08802010399086A1043086203994868A7
:1037C00040F20042904348600198008982000399CA
:1037D0004868104348600399486840F600029043E7
:1037E0004860019840898200039948681043486006
:1037F000FFE70398F74988420ED1FFE7039948682D
:1038000040F2004290434860019800898200039989
:10381000486810434860FFE78EE00399086A40F269
:103820000012904308620399C86903229043C8615B
:103830000198008802020399086A104308620399FC
:10384000086A40F2002290430862019880880202D0
:103850000399086A104308620398DD49884235D10C
:10386000FFE70399086A40F200429043086201981A
:10387000408802020399086A104308620399086AA3
:1038800040F60002904308620198C0880202039942
:10389000086A104308620399486841F200029043A5
:1038A0004860019800890201039948681043486004
:1038B0000399486842F200029043486001984089A9
:1038C00002010399486810434860FFE734E0039918
:1038D000086A41F20002904308620399C86940F205
:1038E00000329043C8610198008802030399086A76
:1038F000104308620399086A42F20002904308628A
:103900000198808802030399086A104308620398AB
:10391000AF4988420ED1FFE70399486844F200029C
:1039200090434860019800898201039948681043D8
:103930004860FFE700E0FFE704B07047002C01405B
:1039400000400140004401400048014084B0039021
:1039500002A8018001A90A8000880090032841D8AC
:1039600000998A0001A080188746C04600F006B87A
:1039700000F010B800F01CB800F026B80399886970
:1039800070229043886101A80288039988691043D6
:10399000886128E00399886947F2000290438861B2
:1039A00001A80088020203998869104388611AE01F
:1039B0000399C86970229043C86101A802880399DD
:1039C000C8691043C8610EE00399C86947F2000254
:1039D0009043C86101A8008802020399C869104396
:1039E000C86100E0FFE704B07047000084B00390B6
:1039F00002A8018001920088009003281CD8009939
:103A00008A0001A08018874600F006B800F008B8C8
:103A100000F00AB800F00CB80198039948630CE074
:103A200001980399886308E001980399C86304E04A
:103A300001980399086400E0FFE704B070470000B4
:103A400084B0039002A8018001A90A800088009038
:103A5000032841D800998A0001A080188746C046F3
:103A600000F006B800F010B800F01CB800F026B85E
:103A70000399886908229043886101A80288039904
:103A800088691043886128E00399886940F600023C
:103A90009043886101A80088020203998869104355
:103AA00088611AE00399C86908229043C86101A897
:103AB00002880399C8691043C8610EE00399C86978
:103AC00040F600029043C86101A8008802020399F1
:103AD000C8691043C86100E0FFE704B0704782B0D6
:103AE0000190002000900198406A0090009802B078
:103AF000704781B0009000990868102290430860D8
:103B000001B0704780B58AB00990099808908D4936
:103B1000884226D0FFE708982C49884229D0FFE741
:103B20000898894988422CD0FFE708988449884240
:103B30000FD0FFE70898854988422BD0FFE7089807
:103B4000834988422FD0FFE708988249884232D0C3
:103B500039E025480790FFF7E3FC0798FFF7CEFC14
:103B600032E020480690FFF7DBFC0698FFF7C6FC22
:103B70002AE01B480590FFF7D3FC0598FFF7BEFC31
:103B800022E040F208400490FFF7CAFC0498FFF7D7
:103B9000B5FC19E040F210300390FFF7C1FC039828
:103BA000FFF7ACFC10E00D480290FFF7B9FC02985B
:103BB000FFF7A4FC08E008480190FFF7B1FC01986A
:103BC000FFF79CFC00E0FFE70AB080BD001000405A
:103BD000002C0140004001401203000011030000CE
:103BE00004040000010400000B03000081B00090F9
:103BF0000099086801221043086001B0704780B541
:103C000084B0039002910192009303980299019A63
:103C1000009B00F008F80399886844F20002104302
:103C2000886004B080BD84B003900291019200933B
:103C3000039988684BF6007290438860029A019855
:103C40000243039988681043886000980202039930
:103C500088681043886004B07047000082B001900B
:103C6000009100980088019988620198344988423F
:103C700005D0FFE701983349884212D1FFE7019947
:103C8000086870229043086000984288019908688B
:103C90001043086000988288019908681043086002
:103CA000FFE7009880680199C8620198244988421A
:103CB00019D0FFE701982349884214D0FFE7019803
:103CC000214988420FD0FFE70198204988420AD055
:103CD000FFE701981E49884205D0FFE701981D497A
:103CE00088420DD1FFE70199086840F20032904305
:103CF00008600098C2880199086810430860FFE7CF
:103D000001980F4988420FD0FFE701980F49884278
:103D10000AD0FFE701980E49884205D0FFE70198D5
:103D20000C49884205D1FFE70098007B01990863A0
:103D3000FFE70199486901221043486102B07047CA
:103D4000002C0140000400400020004000400140E1
:103D5000004401400048014082B001900091019967
:103D60008868702290438860009A0199886810439F
:103D7000886002B0704782B001900091009A01996A
:103D8000C8681043C86002B0704782B001900091CB
:103D9000009A019908699043086102B0704784B0A5
:103DA000029001910298C068019908400090029821
:103DB00000690199084207D0FFE7009820B1FFE7AA
:103DC00003A90120087003E003A900200870FFE7A1
:103DD00003A8007804B0704782B001900091009869
:103DE000802806D1FFE70199886880221043886007
:103DF0000AE0009830B9FFE7019988688022904373
:103E0000886000E0FFE7FFE702B0704782B00190F2
:103E1000684601800088012807D1FFE70199FC224C
:103E200088580123184388500CE06846008838B948
:103E3000FFE70199FC22885801239843885000E04D
:103E4000FFE7FFE702B0704782B00190684601705B
:103E50000078012807D1FFE70199486C48F2000279
:103E60001043486406E00199486C48F20002904310
:103E70004864FFE702B0704781B0009000990020CD
:103E800008800099488000998880009A03499160D1
:103E90000099C8800099087301B07047FFFF0000C7
:103EA00082B0019000910098042806D1FFE70199A3
:103EB00008680422104308600AE0009830B9FFE760
:103EC0000199086804229043086000E0FFE7FFE7DB
:103ED00002B0704780B588B0079006910020059029
:103EE00004900390029007980190414988420AD0BB
:103EF000FFE701983F4988420AD1FFE70520FFF715
:103F0000ADF9059005E00220FFF7A8F9059000E063
:103F1000FFE7079800680004002818D5FFE7059818
:103F2000400006994A088018B0FBF1F00290029810
:103F300013490840049002980007400F039004A81A
:103F4000008803A9098808430799C86016E0059806
:103F500006994A088018B0FBF1F0029002980849CF
:103F60000840049002980F210840039004A800889C
:103F700003A9098808430799C860FFE708B080BD16
:103F8000F0FF000081B000900098406A06490840A8
:103F900001B0704782B0019000910098024908403A
:103FA0000199886202B07047FF01000080B584B0BB
:103FB0000390039802900E4988420DD0FFE70298C3
:103FC0000C49884210D1FFE70C480190FFF7A8FA8E
:103FD0000198FFF793FA08E007480090FFF7A0FA6E
:103FE0000098FFF78BFA00E0FFE704B080BDC04601
:103FF0000044004000380140110400000E0300009E
:1040000082B00190009101990868012290430860F4
:10401000019A916848F2000081439160009A024041
:10402000019988681043886002B0704782B001909F
:10403000009101990868012290430860019908687D
:104040001F225205904308600098C006820901991A
:1040500008681043086002B0704782B00190009178
:1040600001990868012290430860019908681F229D
:104070001204904308600098C006C20A01990868BB
:104080001043086002B0704781B000900099086842
:1040900001221043086001B0704782B00190684669
:1040A000018000881F220146114001238B400199A5
:1040B000820988589843885002B0704782B00190B6
:1040C0006846018000881F220146114001238B4071
:1040D0000199820988581843885002B0704700003F
:1040E00082B00190009100980C49884208D1FFE706
:1040F0000199D022885848F20003984388500BE079
:1041000000981F2109040840000C012282400199F7
:10411000086A10430862FFE702B0704709340F34A1
:1041200010B585B003900291002001900090039893
:1041300002A9098889094058029C1F231C400121BB
:104140000A46A240104001900398029A920D8058AE
:10415000029A1B041A40120C9140084000900098EB
:1041600038B1FFE7019820B1FFE704A901200870EA
:1041700003E004A900200870FFE704A8007805B058
:1041800010BD82B00190009101990868042290430B
:104190000860009A019908681043086002B07047EF
:1041A00082B001900091019908680822904308604C
:1041B000009A019908681043086002B0704710B572
:1041C00000F014F8EFF30080800001D5012010BD4D
:1041D000002010BD10B500F009F8EFF3008040009A
:1041E000800F012800D0002010BD000070B501250F
:1041F0002D050C001C4310D4EC4206D4AC420AD46A
:10420000994200D070BD904270BDE94217D4EB4294
:1042100015D4994270BD894270BDEC4206D5AC42BE
:10422000F9D58B4200D070BD824270BD6D004C004C
:10423000EC4204D25C00EC4201D28B4270BD034CD4
:1042400030B4FCF7F1FE30BC70BD00BF19001304A0
:1042500070B5420064414B005C41120E39D01B0E18
:1042600038D0FF2A3CD0FF2B3AD0D2187F3A4002F8
:104270004902400A490A4518ED0106004E43000A6A
:10428000090A48430104731A4019190C4318990F7D
:1042900004D05B08012149075B1A521CD80904D3DA
:1042A000401CF50301D19D0607D0FF2A08D2D50591
:1042B00006D0E4072043401970BD0125A843F4E768
:1042C000002A01DCE00770BD2402FF202043C00566
:1042D00070BD1B0EFF2A03D0FF2B01D0E00770BD7D
:1042E000FF2636064500B54206D84D00B54203D834
:1042F000D218FF2A00D0E7E7004870BD0000C07F59
:1043000080807F7E7D7C7B7A797877767675747312
:10431000727171706F6E6E6D6C6C6B6A6A696868D1
:10432000676666656464636362616160605F5F5E67
:104330005E5D5D5C5C5B5B5A5A59595858575756DD
:104340005655555554545353525252515150505042
:104350004F4F4F4E4E4D4D4D4C4C4C4B4B4B4A4A94
:104360004A494949484848474747474646464545D8
:104370004544444444434343434242424241414111
:104380008182838485868788898B8C8D8E8F91929C
:1043900093959697999A9C9D9FA0A2A3A5A7A8AA3A
:1043A000ACAEB0B2B3B5B7B9BCBEC0C2C5C7C9CC5C
:1043B000CED1D4D7D9DCDFE2E6E9ECF0F3F7FAFEB0
:1043C00000070E091C1B1215383F363124232A2DF5
:1043D00070777E796C6B6265484F464154535A5DE5
:1043E000E0E7EEE9FCFBF2F5D8DFD6D1C4C3CACDD5
:1043F00090979E998C8B8285A8AFA6A1B4B3BABDC5
:10440000C7C0C9CEDBDCD5D2FFF8F1F6E3E4EDEAB4
:10441000B7B0B9BEABACA5A28F88818693949D9AA4
:104420002720292E3B3C35321F18111603040D0A94
:104430005750595E4B4C45426F68616673747D7A84
:10444000898E878095929B9CB1B6BFB8ADAAA3A474
:10445000F9FEF7F0E5E2EBECC1C6CFC8DDDAD3D464
:10446000696E676075727B7C51565F584D4A434454
:10447000191E171005020B0C21262F283D3A333444
:104480004E49404752555C5B7671787F6A6D646334
:104490003E39303722252C2B0601080F1A1D141324
:1044A000AEA9A0A7B2B5BCBB9691989F8A8D848314
:1044B000DED9D0D7C2C5CCCBE6E1E8EFFAFDF4F304
:1044C00012830040295CFF400000803F0000803FD5
:1044D000C383534200450008000000200001000093
:1044E0001001000800460008000100200808000034
:1044F0002C01000800000000000000000000000087
:1045000000A24A049A99993F0000000000000000B0
:10451000000000000000000000000000000000009B
:10452000000000000000000000000000000000008B
:10453000000000000000000000000000000000007B
:10454000000000000000000000000000000000006B
:10455000000000000000000000000000000000005B
:10456000000000000000000000000000000000004B
:10457000000000000000000000000000000000003B
:10458000000000000000000000000000000000002B
:10459000000000000000000000000000000000001B
:1045A000000000000000000000000000000000000B
:1045B00000000000000000000000000000000000FB
:1045C00000000000000000000000000000000000EB
:1045D00000000000000000000000000000000000DB
:1045E00000000000000000000000000000000000CB
:1045F00000000000000000000000000000000000BB
:04000005080000CD22
:00000001FF
